{
  "_format": "hh-sol-artifact-1",
  "contractName": "GoodArbitrage",
  "sourceName": "contracts/arbitrage.sol",
  "abi": [
    {
      "inputs": [
        {
          "internalType": "address",
          "name": "_uniswapRouterAddress",
          "type": "address"
        },
        {
          "internalType": "address",
          "name": "_sushiswapRouterAddress",
          "type": "address"
        },
        {
          "internalType": "address",
          "name": "_usdt",
          "type": "address"
        }
      ],
      "stateMutability": "nonpayable",
      "type": "constructor"
    },
    {
      "anonymous": false,
      "inputs": [
        {
          "indexed": false,
          "internalType": "uint256",
          "name": "uniswapPrice",
          "type": "uint256"
        },
        {
          "indexed": false,
          "internalType": "uint256",
          "name": "bakeryswapPrice",
          "type": "uint256"
        }
      ],
      "name": "swapPrice",
      "type": "event"
    },
    {
      "stateMutability": "payable",
      "type": "fallback"
    },
    {
      "inputs": [],
      "name": "WithdrawBalance",
      "outputs": [],
      "stateMutability": "payable",
      "type": "function"
    },
    {
      "inputs": [],
      "name": "arbitrageAmount",
      "outputs": [
        {
          "internalType": "uint256",
          "name": "",
          "type": "uint256"
        }
      ],
      "stateMutability": "view",
      "type": "function"
    },
    {
      "inputs": [
        {
          "internalType": "address",
          "name": "ERC20Token",
          "type": "address"
        },
        {
          "internalType": "bool",
          "name": "uniswap",
          "type": "bool"
        }
      ],
      "name": "getPathForETHToToken",
      "outputs": [
        {
          "internalType": "address[]",
          "name": "",
          "type": "address[]"
        }
      ],
      "stateMutability": "view",
      "type": "function"
    },
    {
      "inputs": [
        {
          "internalType": "address",
          "name": "ERC20Token",
          "type": "address"
        },
        {
          "internalType": "bool",
          "name": "uniswap",
          "type": "bool"
        }
      ],
      "name": "getPathForTokenToETH",
      "outputs": [
        {
          "internalType": "address[]",
          "name": "",
          "type": "address[]"
        }
      ],
      "stateMutability": "view",
      "type": "function"
    },
    {
      "inputs": [
        {
          "internalType": "uint256",
          "name": "_arbitrageAmount",
          "type": "uint256"
        }
      ],
      "name": "getPrices",
      "outputs": [
        {
          "internalType": "uint256",
          "name": "uniswapPrice",
          "type": "uint256"
        },
        {
          "internalType": "uint256",
          "name": "sushiswapPrice",
          "type": "uint256"
        }
      ],
      "stateMutability": "view",
      "type": "function"
    },
    {
      "inputs": [
        {
          "internalType": "uint256",
          "name": "_arbitrageAmount",
          "type": "uint256"
        }
      ],
      "name": "makeArbitrage",
      "outputs": [
        {
          "internalType": "bool",
          "name": "",
          "type": "bool"
        }
      ],
      "stateMutability": "payable",
      "type": "function"
    },
    {
      "inputs": [],
      "name": "owner",
      "outputs": [
        {
          "internalType": "address",
          "name": "",
          "type": "address"
        }
      ],
      "stateMutability": "view",
      "type": "function"
    },
    {
      "inputs": [],
      "name": "sushiswapRouterAddress",
      "outputs": [
        {
          "internalType": "address",
          "name": "",
          "type": "address"
        }
      ],
      "stateMutability": "view",
      "type": "function"
    },
    {
      "inputs": [],
      "name": "uniswapRouterAddress",
      "outputs": [
        {
          "internalType": "address",
          "name": "",
          "type": "address"
        }
      ],
      "stateMutability": "view",
      "type": "function"
    },
    {
      "inputs": [],
      "name": "usdtAddress",
      "outputs": [
        {
          "internalType": "address",
          "name": "",
          "type": "address"
        }
      ],
      "stateMutability": "view",
      "type": "function"
    },
    {
      "inputs": [],
      "name": "wethAddress",
      "outputs": [
        {
          "internalType": "address",
          "name": "",
          "type": "address"
        }
      ],
      "stateMutability": "view",
      "type": "function"
    },
    {
      "inputs": [
        {
          "internalType": "uint256",
          "name": "amount",
          "type": "uint256"
        }
      ],
      "name": "withdraw",
      "outputs": [],
      "stateMutability": "nonpayable",
      "type": "function"
    },
    {
      "stateMutability": "payable",
      "type": "receive"
    }
  ],
  "bytecode": "0x60806040523480156200001157600080fd5b50604051620011e9380380620011e983398101604081905262000034916200015d565b60008054336001600160a01b0319918216179091556001805482166001600160a01b038681169182179092556002805490931691851691909117909155604080516315ab88c960e31b8152905163ad5c464891600480820192602092909190829003018186803b158015620000a857600080fd5b505afa158015620000bd573d6000803e3d6000fd5b505050506040513d601f19601f82011682018060405250810190620000e3919062000138565b600380546001600160a01b039283166001600160a01b0319918216179091556004805493909216921691909117905550620001a79050565b80516001600160a01b03811681146200013357600080fd5b919050565b6000602082840312156200014b57600080fd5b62000156826200011b565b9392505050565b6000806000606084860312156200017357600080fd5b6200017e846200011b565b92506200018e602085016200011b565b91506200019e604085016200011b565b90509250925092565b61103280620001b76000396000f3fe6080604052600436106100a55760003560e01c80637b64351d116100615780637b64351d1461019b5780638da5cb5b146101bb57806391492956146101db5780639ab4a44514610210578063a39d716d14610230578063c599e7b11461023857005b806319d0a9a2146100ae57806320ca3c7f146100eb5780632e1a7d4d1461010b5780633dd9ce1f1461012b5780634f0e0ef31461014e57806370f3ca721461016e57005b366100ac57005b005b3480156100ba57600080fd5b506002546100ce906001600160a01b031681565b6040516001600160a01b0390911681526020015b60405180910390f35b3480156100f757600080fd5b506001546100ce906001600160a01b031681565b34801561011757600080fd5b506100ac610126366004610e6c565b61025c565b61013e610139366004610e6c565b610354565b60405190151581526020016100e2565b34801561015a57600080fd5b506003546100ce906001600160a01b031681565b34801561017a57600080fd5b5061018e610189366004610d51565b6108a8565b6040516100e29190610ee2565b3480156101a757600080fd5b5061018e6101b6366004610d51565b6109c7565b3480156101c757600080fd5b506000546100ce906001600160a01b031681565b3480156101e757600080fd5b506101fb6101f6366004610e6c565b610ac6565b604080519283526020830191909152016100e2565b34801561021c57600080fd5b506004546100ce906001600160a01b031681565b6100ac610b1d565b34801561024457600080fd5b5061024e60055481565b6040519081526020016100e2565b6000546001600160a01b031633146102b65760405162461bcd60e51b81526020600482015260186024820152776f6e6c79206f776e65722063616e2063616c6c207468697360401b60448201526064015b60405180910390fd5b600080546040516001600160a01b039091169083908381818185875af1925050503d8060008114610303576040519150601f19603f3d011682016040523d82523d6000602084013e610308565b606091505b50509050806103505760405162461bcd60e51b81526020600482015260146024820152732330b4b632b2103a379039b2b7321022ba3432b960611b60448201526064016102ad565b5050565b60058190556001546003546004546000928392610382926001600160a01b0392831692918216911686610c04565b6002546003546004546005549394506000936103ae936001600160a01b03908116938116921690610c04565b60408051848152602081018390529192507f10258ac4e7953e44db6d92474c311040eef73337f9299a150c1422690b462a3a910160405180910390a18082111561066457600180546005546004546001600160a01b0392831693637ff36ab59360009261041d929116906108a8565b3061042a4261012c610f87565b6040518663ffffffff1660e01b81526004016104499493929190610ef5565b6000604051808303818588803b15801561046257600080fd5b505af1158015610476573d6000803e3d6000fd5b50505050506040513d6000823e601f3d908101601f1916820160405261049f9190810190610d8a565b50600480546040516370a0823160e01b815230928101929092526000916001600160a01b03909116906370a082319060240160206040518083038186803b1580156104e957600080fd5b505afa1580156104fd573d6000803e3d6000fd5b505050506040513d601f19601f820116820180604052508101906105219190610e85565b6004805460025460405163095ea7b360e01b81526001600160a01b039182169381019390935260248301849052929350919091169063095ea7b390604401602060405180830381600087803b15801561057957600080fd5b505af115801561058d573d6000803e3d6000fd5b505050506040513d601f19601f820116820180604052508101906105b19190610e4f565b506002546004546001600160a01b03918216916318cbafe59184916000916105da9116826109c7565b306105e74261012c610f87565b6040518663ffffffff1660e01b8152600401610607959493929190610f4b565b600060405180830381600087803b15801561062157600080fd5b505af1158015610635573d6000803e3d6000fd5b505050506040513d6000823e601f3d908101601f1916820160405261065d9190810190610d8a565b505061089e565b81811115610856576002546005546004546001600160a01b0392831692637ff36ab592916000916106969116826108a8565b306106a34261012c610f87565b6040518663ffffffff1660e01b81526004016106c29493929190610ef5565b6000604051808303818588803b1580156106db57600080fd5b505af11580156106ef573d6000803e3d6000fd5b50505050506040513d6000823e601f3d908101601f191682016040526107189190810190610d8a565b50600480546040516370a0823160e01b815230928101929092526000916001600160a01b03909116906370a082319060240160206040518083038186803b15801561076257600080fd5b505afa158015610776573d6000803e3d6000fd5b505050506040513d601f19601f8201168201806040525081019061079a9190610e85565b6004805460015460405163095ea7b360e01b81526001600160a01b039182169381019390935260248301849052929350919091169063095ea7b390604401602060405180830381600087803b1580156107f257600080fd5b505af1158015610806573d6000803e3d6000fd5b505050506040513d601f19601f8201168201806040525081019061082a9190610e4f565b50600180546004546001600160a01b03918216926318cbafe59285926000926105da92909116906109c7565b60405162461bcd60e51b815260206004820152601860248201527f417262697472616765206e6f742070726f66697461626c65000000000000000060448201526064016102ad565b5060019392505050565b60408051600280825260608083018452926000929190602083019080368337019050509050826108e3576002546001600160a01b03166108f0565b6001546001600160a01b03165b6001600160a01b031663ad5c46486040518163ffffffff1660e01b815260040160206040518083038186803b15801561092857600080fd5b505afa15801561093c573d6000803e3d6000fd5b505050506040513d601f19601f820116820180604052508101906109609190610d2d565b8160008151811061097357610973610fad565b60200260200101906001600160a01b031690816001600160a01b03168152505083816001815181106109a7576109a7610fad565b6001600160a01b0390921660209283029190910190910152905092915050565b604080516002808252606080830184529260009291906020830190803683370190505090508381600081518110610a0057610a00610fad565b60200260200101906001600160a01b031690816001600160a01b03168152505082610a36576002546001600160a01b0316610a43565b6001546001600160a01b03165b6001600160a01b031663ad5c46486040518163ffffffff1660e01b815260040160206040518083038186803b158015610a7b57600080fd5b505afa158015610a8f573d6000803e3d6000fd5b505050506040513d601f19601f82011682018060405250810190610ab39190610d2d565b816001815181106109a7576109a7610fad565b6001546003546004546000928392610aef926001600160a01b0392831692918216911686610c04565b600254600354600454929450610b16926001600160a01b0392831692918216911686610c04565b9050915091565b6000546001600160a01b03163314610b725760405162461bcd60e51b81526020600482015260186024820152776f6e6c79206f776e65722063616e2063616c6c207468697360401b60448201526064016102ad565b604051600090339047908381818185875af1925050503d8060008114610bb4576040519150601f19603f3d011682016040523d82523d6000602084013e610bb9565b606091505b5050905080610c015760405162461bcd60e51b81526020600482015260146024820152732330b4b632b2103a379039b2b7321022ba3432b960611b60448201526064016102ad565b50565b604080516002808252606082018352600092839291906020830190803683370190505090508481600081518110610c3d57610c3d610fad565b60200260200101906001600160a01b031690816001600160a01b0316815250508381600181518110610c7157610c71610fad565b6001600160a01b03928316602091820292909201015260405163d06ca61f60e01b815260009188169063d06ca61f90610cb09087908690600401610f2a565b60006040518083038186803b158015610cc857600080fd5b505afa158015610cdc573d6000803e3d6000fd5b505050506040513d6000823e601f3d908101601f19168201604052610d049190810190610d8a565b600181518110610d1657610d16610fad565b602002602001015190508092505050949350505050565b600060208284031215610d3f57600080fd5b8151610d4a81610fd9565b9392505050565b60008060408385031215610d6457600080fd5b8235610d6f81610fd9565b91506020830135610d7f81610fee565b809150509250929050565b60006020808385031215610d9d57600080fd5b825167ffffffffffffffff80821115610db557600080fd5b818501915085601f830112610dc957600080fd5b815181811115610ddb57610ddb610fc3565b8060051b604051601f19603f83011681018181108582111715610e0057610e00610fc3565b604052828152858101935084860182860187018a1015610e1f57600080fd5b600095505b83861015610e42578051855260019590950194938601938601610e24565b5098975050505050505050565b600060208284031215610e6157600080fd5b8151610d4a81610fee565b600060208284031215610e7e57600080fd5b5035919050565b600060208284031215610e9757600080fd5b5051919050565b600081518084526020808501945080840160005b83811015610ed75781516001600160a01b031687529582019590820190600101610eb2565b509495945050505050565b602081526000610d4a6020830184610e9e565b848152608060208201526000610f0e6080830186610e9e565b6001600160a01b03949094166040830152506060015292915050565b828152604060208201526000610f436040830184610e9e565b949350505050565b85815284602082015260a060408201526000610f6a60a0830186610e9e565b6001600160a01b0394909416606083015250608001529392505050565b60008219821115610fa857634e487b7160e01b600052601160045260246000fd5b500190565b634e487b7160e01b600052603260045260246000fd5b634e487b7160e01b600052604160045260246000fd5b6001600160a01b0381168114610c0157600080fd5b8015158114610c0157600080fdfea2646970667358221220015dce3d2ef7baea9c7307d556ab78b313503c24721ddd43a4db4d644182c4eb64736f6c63430008070033",
  "linkReferences": {},
  "deployedLinkReferences": {}
}